S01B000066696E616C50726F6A6563745F6F75747075742E7372656318
S113000045C0000060C000005EC000005CC000008D
S11300105AC0000058C0000056C0000054C0000080
S113002052C0000050C000004EC000004CC0000090
S11300304AC00000BEC0000046C0000044C000002A
S113004042C0000040C000003EC000003CC00000B0
S11300503AC0000038C0000036C0000034C00000C0
S113006032C0000030C000002EC000002CC00000D0
S11300702AC0000028C0000026C0000024C00000E0
S113008022C0000020C000001EC0000011241FBEBA
S1130090CFEFD0E4DEBFCDBF11E0A0E0B1E0EAECE9
S11300A0F3E000E00BBF02C007900D92A430B1074B
S11300B0D9F721E0A4E0B1E001C01D92AC30B20751
S11300C0E1F74CD180C19CCF813081F0E1ECF0E0CC
S11300D0808188618083E2ECF0E0808186608083A7
S11300E083E38093C4001092C5000895E9ECF0E026
S11300F0808188618083EAECF0E08081866080837F
S113010083E38093CC001092CD000895813029F4CC
S11301108091C800882374F008958091C0008823DA
S11301208CF4A6ECB0E0E0ECF0E08C9180818823C4
S1130130E4F30895AEECB0E0E8ECF0E08C9180815B
S11301408823E4F30895813041F0E0ECF0E080810D
S11301508823ECF78091C6000895E8ECF0E08081F4
S11301608823ECF78091CE0008958BE08093810082
S11301708DE790E0909389008093880082E08093DB
S11301806F0010928500109284008091000190917C
S11301900101A0910201B0910301809304019093A5
S11301A00501A0930601B09307018FB780688FBF44
S11301B008951F920F920FB60F9211248F939F935D
S11301C0AF93BF938091040190910501A091060122
S11301D0B09107010197A109B1098093040190939B
S11301E00501A0930601B0930701892B8A2B8B2B61
S11301F099F481E0809308018091000190910101BC
S1130200A0910201B0910301809304019093050130
S1130210A0930601B0930701BF91AF919F918F9175
S11302200F900FBE0F901F9018956093000170936C
S11302300101809302019093030160930401709380
S113024005018093060190930701089520E030E0B2
S113025058E0E82FF0E055B945B1BF01022E02C0C5
S1130260759567950A94E2F7962F9170942B95B93A
S11302702A9A2F5F3F4F2830310569F7299A15B81C
S11302800895909109019F7080910B01813071F163
S113029028F0823099F08330E9F034C010920A01DA
S11302A0911103C010920B0135C0983021F482E003
S11302B080930B0137C010920B012CC0983071F160
S11302C0943021F483E080930B0139C081E0809362
S11302D00B0140C0983021F482E080930B011EC0D2
S11302E0943069F181E080930B0134C0983021F49B
S11302F082E080930B0112C0943061F583E0809317
S11303000B011DC0813031F128F0823039F0833087
S113031021F515C080910A0199CF089580910A01B1
S1130320811104C081E080930A0105C0803819F06E
S1130330880F80930A0180910A0188CF08958091E3
S11303400A01813019F0869580930A0180910A018F
S11303507DCF089580910A0179CF08958FEF84B9F4
S113036015B864E670E080E090E05FDFFEDE80E0D8
S1130370ABDE0F2EFCE2CF2EDD24D394E12CF12C46
S1130380F02DC0ECD0E08881882334F480E0DBDEFB
S11303908093090180E0BADE84EFC81681E0D806B4
S11303A0E104F10420F06DDFC12CD12C76018091A1
S11303B008018823E1F31092080184E6C80ED11CD9
S10D03C0E11CF11CE0CFF894FFCF1C
S10703CA010000002A
S9030000FC
