S015000066696E616C5F70726F6A6563742E73726563AF
S113000045C0000060C000005EC000005CC000008D
S11300105AC0000058C0000056C0000054C0000080
S113002052C0000050C000004EC000004CC0000090
S11300304AC0000098C0000046C0000044C0000050
S113004042C0000040C000003EC000003CC00000B0
S11300503AC0000038C0000036C0000034C00000C0
S113006032C0000030C000002EC000002CC00000D0
S11300702AC0000028C0000026C0000024C00000E0
S113008022C0000020C000001EC0000011241FBEBA
S1130090CFEFD0E4DEBFCDBF11E0A0E0B1E0E4E2F9
S11300A0F3E000E00BBF02C007900D92A430B1074B
S11300B0D9F721E0A4E0B1E001C01D92A930B20754
S11300C0E1F7D6D02DC19CCF181619065CF008951F
S11300D0000021503109E1F74F5F5F4F8417950706
S11300E019F4089540E050E027E033E0F1CF109890
S11300F08BB9119A0000119882E090E0E5CF089541
S113010084E690E0E1DF88E3F2DF86E0F0DF8FE071
S1130110EEDF81E0ECDF8AE090E0D6CF08958BE05B
S1130120809381008DE790E090938900809388000C
S113013082E080936F001092850010928400809179
S1130140000190910101A0910201B09103018093FB
S1130150040190930501A0930601B09307018FB7A2
S113016080688FBF08951F920F920FB60F921124CB
S11301708F939F93AF93BF93809104019091050156
S1130180A0910601B09107010197A109B1098093DB
S1130190040190930501A0930601B0930701892BF4
S11301A08A2B8B2B99F481E08093080180910001C4
S11301B090910101A0910201B09103018093040187
S11301C090930501A0930601B0930701BF91AF91ED
S11301D09F918F910F900FBE0F901F901895609371
S11301E000017093010180930201909303016093D5
S11301F0040170930501809306019093070108950B
S113020080E480937C0087E880937A000895ECE78B
S1130210F0E09081987F8770892B8083EAE7F0E093
S1130220808180648083808186FDFDCF8091780009
S113023090917900089540E050E098E061E070E02A
S113024098B998B99B01042E02C0220F331F0A9457
S1130250E2F72823322F386038B92C6028B94F5F71
S11302605F4F4830510561F782E088B918B80895A6
S11302708FEF84B915B893E091B99CEF92B98AB91C
S11302801BB887B918B8BCDF3BDF68EE73E080E0C9
S113029090E0A5DF44DF6894DD24D3F86894EE246D
S11302A0E2F8FF24F39482E0B2DFEC0183E0AFDFF5
S11302B08C018FE0C0DFC93E23E0D20740F0C801C3
S11302C0855691098F31934070F4F5B822C0C2333A
S11302D0D10548F4C801855691098F31934018F42B
S11302E082E085B916C0093E83E0180738F0C55688
S11302F0D109CF31D34060F4E5B80BC00233110506
S113030038F4C556D109CF31D34010F4D5B801C063
S113031015B8809108018823E1F310920801C3CF36
S1070320F894FFCF7B
S107032401000000D0
S9030000FC
