S015000066696E616C5F70726F6A6563742E73726563AF
S113000045C0000060C000005EC000005CC000008D
S11300105AC0000058C0000056C0000054C0000080
S113002052C0000050C000004EC000004CC0000090
S11300304AC00000C5C0000046C0000044C0000023
S113004042C0000040C000003EC000003CC00000B0
S11300503AC0000038C0000036C0000034C00000C0
S113006032C0000030C000002EC000002CC00000D0
S11300702AC0000028C0000026C0000024C00000E0
S113008022C0000020C000001EC0000011241FBEBA
S1130090CFEFD0E4DEBFCDBF11E0A0E0B1E0EEEDE4
S11300A0F3E000E00BBF02C007900D92A430B1074B
S11300B0D9F721E0A4E0B1E001C01D92A930B20754
S11300C0E1F7E6D08AC19CCF181619065CF00895B2
S11300D0000021503109E1F74F5F5F4F8417950706
S11300E019F4089540E050E027E033E0F1CF109890
S11300F08BB9119A0000119882E090E0E5CF089541
S113010081E0F5CF0895813118F48158F0CF089536
S11301108155EDCF089584E690E0D6DF88E3E7DFEC
S113012086E0E5DF8FE0E3DF81E0E1DF8AE090E075
S1130130CBCF0895109A8BB9119A0000119881E0E1
S113014090E0C2CF08950F931F93CF93DF93182F9E
S1130150EB01D6DF8881882351F001E0010F812F64
S1130160D2DF8991E7DF102F88818111F6CFDF91EB
S1130170CF911F910F9108958BE0809381008DE7BB
S113018090E0909389008093880082E080936F00D0
S113019010928500109284008091000190910101D9
S11301A0A0910201B0910301809304019093050191
S11301B0A0930601B09307018FB780688FBF08959D
S11301C01F920F920FB60F9211248F939F93AF93A8
S11301D0BF938091040190910501A0910601B09113
S11301E007010197A109B1098093040190930501C6
S11301F0A0930601B0930701892B8A2B8B2B99F4CA
S113020081E0809308018091000190910101A09107
S11302100201B09103018093040190930501A0931E
S11302200601B0930701BF91AF919F918F910F90F9
S11302300FBE0F901F9018956093000170930101F9
S1130240809302019093030160930401709305016C
S11302508093060190930701089580E480937C00C5
S113026087E880937A000895ECE7F0E09081987F26
S11302708770892B8083EAE7F0E080818064808343
S1130280808186FDFDCF809178009091790008955A
S1130290CF93DF93CDB7DEB72A970FB6F894DEBFBE
S11302A00FBECDBF8FEF84B915B893E091B99CEF21
S11302B092B98AB91BB8D1DF2EDF68EE73E080E013
S11302C090E0BADF59DF6894DD24D3F86894EE2413
S11302D0E2F8FF24F39482E0C7DF8C0183E0C4DFFB
S11302E0093E23E0120740F09C01255631092F31C5
S11302F0334070F4F5B822C00233110548F49C0170
S1130300255631092F31334018F422E025B916C09F
S1130310893E23E0920738F0055611090F31134046
S113032060F4E5B80BC08233910538F40556110921
S11303300F31134010F4D5B801C015B84AE050E0AD
S1130340BE016F5F7F4F0CD0BE016F5F7F4F8F2D5B
S1130350FADE809108018823E1F310920801BBCFF3
S11303604532510518F4423008F004C0FB011082F4
S1130370CB010895BB274A3031F4992322F4BDE21E
S1130380909581959F4F01C0BB27FB015527AA2754
S1130390880F991FAA1FA41710F0A41B839550510E
S11303A0B9F7A05DAA3308F0A95DA193009779F786
S11303B0B111B1931192CB0100C0DC01FC01672F94
S11303C071917723E1F7329704C07C916D93708328
S11103D06291AE17BF07C8F30895F894FFCFEB
S10703DE0100000016
S9030000FC
