S015000066696E616C5F70726F6A6563742E73726563AF
S113000045C0000060C000005EC000005CC000008D
S11300105AC0000058C0000056C0000054C0000080
S113002052C0000050C000004EC000004CC0000090
S11300304AC00000A1C0000046C0000044C0000047
S113004042C0000040C000003EC000003CC00000B0
S11300503AC0000038C0000036C0000034C00000C0
S113006032C0000030C000002EC000002CC00000D0
S11300702AC0000028C0000026C0000024C00000E0
S113008022C0000020C000001EC0000011241FBEBA
S1130090CFEFD0E4DEBFCDBF11E0A0E0B1E0E4E6F5
S11300A0F3E000E00BBF02C007900D92A430B1074B
S11300B0D9F721E0A4E0B1E001C01D92AF30B2074E
S11300C0E1F735D14DC19CCF813081F0E1ECF0E016
S11300D0808188618083E2ECF0E0808186608083A7
S11300E083E38093C4001092C5000895E9ECF0E026
S11300F0808188618083EAECF0E08081866080837F
S113010083E38093CC001092CD000895613041F0D8
S1130110E0ECF0E0908195FFFDCF8093C600089558
S1130120E8ECF0E0908195FFFDCF8093CE00089538
S11301308BE0809381008DE790E090938900809319
S1130140880082E080936F001092850010928400F2
S11301508091000190910101A0910201B0910301ED
S11301608093040190930501A0930601B0930701C5
S11301708FB780688FBF08951F920F920FB60F92AA
S113018011248F939F93AF93BF9380910401909117
S11301900501A0910601B09107010197A109B109D8
S11301A08093040190930501A0930601B093070185
S11301B0892B8A2B8B2B99F481E080930801809101
S11301C0000190910101A0910201B091030180937B
S11301D0040190930501A0930601B0930701BF9118
S11301E0AF919F918F910F900FBE0F901F90189514
S11301F060930001709301018093020190930301C5
S113020060930401709305018093060190930701A4
S1130210089580E480937C0087E880937A000895B1
S1130220ECE7F0E09081987F8770892B8083EAE780
S1130230F0E0808180648083808186FDFDCF8091A1
S11302407800909179000895CF93DF9382E0E8DFFE
S1130250EC0183E0E5DF9C0190910901992319F0F9
S1130260913041F004C081E08093090103C09130D2
S113027009F052C0049906C080910E0180618093F8
S11302800E0105C080910E018F7E80930E01C93E40
S113029043E0D40768F0C901855691098F31934032
S11302A0B8F480910E01807F886080930E0134C081
S11302B0C233D10568F4C901855691098F31934041
S11302C038F480910E01807F846080930E0124C0F5
S11302D0293E83E0380760F0C556D109CF31D340B9
S11302E0B0F480910E01807F826080930E0114C06F
S11302F02233310560F4C556D109CF31D34038F4E7
S113030080910E01807F816080930E0105C08091F1
S11303100E01807F80930E018091C00085FF04C090
S113032060E080910E01F2DEDF91CF91089583E0C9
S113033081B98CEF82B910920E0164E670E080E01E
S113034090E056DFF5DE65DF80E0BEDE1092090145
S11303507BDF809108018823E1F310920801F8CF34
S1070360F894FFCF3B
S10703640100000090
S9030000FC
